:100000000C942A000C9447000C9447000C94470071
:100010000C9447000C9447000C9447000C94470044
:100020000C9447000C9447000C9447000C94470034
:100030000C9447000C9447000C9447000C94470024
:100040000C9447000C9447000C9447000C94470014
:100050000C94470011241FBECFE5D8E0DEBFCDBF12
:1000600010E0A0E6B0E0E2EDF7E002C005900D92EE
:10007000AA37B107D9F710E0AAE7B0E001C01D9296
:10008000AB37B107E1F70E94A9030C94E7030C9486
:1000900000004130B1F5813099F0813030F082308C
:1000A000D1F0833009F067C021C02AB381E090E02D
:1000B00002C0880F991F6A95E2F7282B2ABB089582
:1000C00027B381E090E002C0880F991F6A95E2F79C
:1000D000282B27BB089524B381E090E002C0880F4D
:1000E000991F6A95E2F7282B24BB089521B381E07C
:1000F00090E002C0880F991F6A95E2F7282B21BB78
:1001000008954423C1F5813099F0813028F0823080
:10011000D9F0833081F524C02AB381E090E002C099
:10012000880F991F6A95E2F7809582238ABB08950C
:1001300027B381E090E002C0880F991F6A95E2F72B
:100140008095822387BB089524B381E090E002C0AC
:10015000880F991F6A95E2F78095822384BB0895E2
:1001600021B381E090E002C0880F991F6A95E2F701
:100170008095822381BB08954130B1F5813099F09B
:10018000813030F08230D1F0833009F067C021C077
:100190002BB381E090E002C0880F991F6A95E2F7C7
:1001A000282B2BBB089528B381E090E002C0880F74
:1001B000991F6A95E2F7282B28BB089525B381E0A3
:1001C00090E002C0880F991F6A95E2F7282B25BBA3
:1001D000089522B381E090E002C0880F991F6A95CC
:1001E000E2F7282B22BB08954423C1F5813099F012
:1001F000813028F08230D9F0833081F524C02BB3D0
:1002000081E090E002C0880F991F6A95E2F780951F
:1002100082238BBB089528B381E090E002C0880F51
:10022000991F6A95E2F78095822388BB089525B3CC
:1002300081E090E002C0880F991F6A95E2F78095EF
:10024000822385BB089522B381E090E002C0880F2D
:10025000991F6A95E2F78095822382BB08958130C9
:1002600051F0813030F0823041F08330C1F080E0D5
:10027000089529B303C026B301C023B381E090E001
:10028000062E02C0880F991F0A94E2F730E08223FD
:10029000932302C0959587956A95E2F7089520B358
:1002A00081E090E0062E02C0880F991F0A94E2F7C1
:1002B00030E08223932302C0959587956A95E2F7F3
:1002C0000895813049F0813028F0823039F0833050
:1002D00041F406C06ABB089567BB089564BB0895E6
:1002E00061BB0895813049F0813028F0823039F0C7
:1002F000833041F406C06BBB089568BB089565BBAD
:10030000089562BB0895813051F0813030F0823021
:1003100041F0833041F080E0089589B3089586B3B9
:10032000089583B3089580B30895813021F460E087
:100330000E9472010895823021F481E060E00E9401
:1003400072010895813059F46A30A8F4E62FF0E084
:10035000E05AFF4F82E060810E947201089582306E
:1003600051F46A3040F4E62FF0E0E05AFF4F81E0AC
:1003700060810E9472010895813029F482E06FEF5C
:100380000E9461010895823021F481E06FEF0E94A4
:1003900061010895089508950F931F93182F81E028
:1003A00060E041E00E94BC0081E061E040E00E942A
:1003B000BC0080E0612F0E94720181E062E041E0B8
:1003C0000E94BC0000ED17E0C8010197F1F781E041
:1003D00062E040E00E94BC00C8010197F1F71F9164
:1003E0000F910895AF92BF92CF92DF92EF92FF925A
:1003F0000F931F93DF93CF93CDB7DEB769970FB6F7
:10040000F894DEBF0FBECDBF7B018C0197FF11C0FA
:1004100010950095F094E094E11CF11C011D111D54
:100420008DE20E94CC015E010894A11CB11C650103
:100430001EC06115710581059105A9F780E3F1CF13
:10044000C801B7012AE030E040E050E00E94AA0372
:10045000F60161936F01C801B7012AE030E040E086
:1004600050E00E94AA03C901DA017C018D018C2DA4
:100470008A19E114F1040105110511F7F82EFA9417
:100480008F2D992787FD90958E010F5F1F4F080FC5
:10049000191F08C0F8018081805D0E94CC01FA9488
:1004A00001501040F7FEF6CF69960FB6F894DEBF04
:1004B0000FBECDBFCF91DF911F910F91FF90EF90B5
:1004C000DF90CF90BF90AF9008950F931F93182F98
:1004D00081E060E040E00E94BC0081E061E040E03B
:1004E0000E94BC0080E0612F0E94720181E062E006
:1004F00041E00E94BC0000ED17E0C8010197F1F750
:1005000081E062E040E00E94BC00C8010197F1F781
:100510001F910F910895803419F4862F805402C0E2
:10052000862F80580E9465020895EF92FF920F93E4
:100530001F93CF93DF93EC0110E000E088ECE82EEE
:10054000F12C25C00E94CC0180ED97E0F701319796
:10055000F1F70197D9F70F30C9F480917A00882319
:1005600051F460E10E948B0287E00E94650280E402
:1005700080937A000AC0803449F460E10E948B02C3
:1005800087E00E94650210927A0011E00F5FFE0181
:10059000E00FF11D80818823A9F680917A008823DD
:1005A00031F4112351F480E480937A0006C0803442
:1005B00021F4112311F410927A0080E197E228ECE3
:1005C00030E0F9013197F1F70197D9F782E00E9405
:1005D000650286E00E946502DF91CF911F910F9125
:1005E000FF90EF90089581E00E94650208950F93B7
:1005F0001F9380E06FEF0E94610181E060E041E0C5
:100600000E94490081E061E041E00E94490081E0F0
:1006100062E041E00E94490084EF91E028EC30E084
:10062000F9013197F1F70197D9F788E30E94650244
:1006300000ED17E0C8010197F1F78EE00E94650216
:10064000C8010197F1F781E00E94650280E797E118
:100650000197F1F786E00E946502C8010197F1F762
:100660001F910F9108956F927F928F929F92BF92E8
:10067000CF92DF92EF92FF920F931F93DF93CF936E
:10068000CDB7DEB760970FB6F894DEBF0FBECDBF13
:10069000DE011196EAE6F0E080E101900D928150D2
:1006A000E1F7CC24CA9400E010E03E010894611CFC
:1006B000711C90E2892E9EE4992EB02E80E0602F6E
:1006C00040E00E94BC007301E00EF11E84E0D82ED1
:1006D00080E06D2D0E942F01882311F4F701C08066
:1006E00080E06D2D0E942F018823D1F3C401019772
:1006F000F1F7D39484E090E0E80EF91E98E0D91663
:1007000039F780E06B2D41E00E94BC000F5F1F4F66
:100710000430110591F68C2D60960FB6F894DEBF6B
:100720000FBECDBFCF91DF911F910F91FF90EF9042
:10073000DF90CF90BF909F908F907F906F900895A3
:1007400080E06FE00E94610180E06FEF0E94720123
:100750000895FFCF97FB092E05260ED057FD04D034
:1007600014D00AD0001C38F450954095309521954E
:100770003F4F4F4F5F4F0895F6F7909580957095D6
:1007800061957F4F8F4F9F4F0895A1E21A2EAA1BAC
:10079000BB1BFD010DC0AA1FBB1FEE1FFF1FA21731
:1007A000B307E407F50720F0A21BB30BE40BF50B2E
:1007B000661F771F881F991F1A9469F760957095B7
:1007C000809590959B01AC01BD01CF010895F894EF
:0207D000FFCF59
:1007D200C0F9A4B0999282F880900104070A020538
:0A07E20008000306090B0C0D0E0FB2
:00000001FF
