:100000000C942A000C9447000C9447000C94470071
:100010000C9447000C9447000C9447000C94470044
:100020000C9447000C9447000C9447000C94470034
:100030000C9447000C9447000C9447000C94470024
:100040000C9447000C9447000C9447000C94470014
:100050000C94470011241FBECFE5D8E0DEBFCDBF12
:1000600010E0A0E6B0E0E6E8F8E002C005900D92EE
:10007000A637B107D9F710E0A6E7B0E001C01D929E
:10008000A737B107E1F70E94F1030C9441040C94E7
:1000900000004130B1F5813099F0813030F082308C
:1000A000D1F0833009F067C021C02AB381E090E02D
:1000B00002C0880F991F6A95E2F7282B2ABB089582
:1000C00027B381E090E002C0880F991F6A95E2F79C
:1000D000282B27BB089524B381E090E002C0880F4D
:1000E000991F6A95E2F7282B24BB089521B381E07C
:1000F00090E002C0880F991F6A95E2F7282B21BB78
:1001000008954423C1F5813099F0813028F0823080
:10011000D9F0833081F524C02AB381E090E002C099
:10012000880F991F6A95E2F7809582238ABB08950C
:1001300027B381E090E002C0880F991F6A95E2F72B
:100140008095822387BB089524B381E090E002C0AC
:10015000880F991F6A95E2F78095822384BB0895E2
:1001600021B381E090E002C0880F991F6A95E2F701
:100170008095822381BB08954130B1F5813099F09B
:10018000813030F08230D1F0833009F067C021C077
:100190002BB381E090E002C0880F991F6A95E2F7C7
:1001A000282B2BBB089528B381E090E002C0880F74
:1001B000991F6A95E2F7282B28BB089525B381E0A3
:1001C00090E002C0880F991F6A95E2F7282B25BBA3
:1001D000089522B381E090E002C0880F991F6A95CC
:1001E000E2F7282B22BB08954423C1F5813099F012
:1001F000813028F08230D9F0833081F524C02BB3D0
:1002000081E090E002C0880F991F6A95E2F780951F
:1002100082238BBB089528B381E090E002C0880F51
:10022000991F6A95E2F78095822388BB089525B3CC
:1002300081E090E002C0880F991F6A95E2F78095EF
:10024000822385BB089522B381E090E002C0880F2D
:10025000991F6A95E2F78095822382BB08958130C9
:1002600051F0813030F0823041F08330C1F080E0D5
:10027000089529B303C026B301C023B381E090E001
:10028000062E02C0880F991F0A94E2F730E08223FD
:10029000932302C0959587956A95E2F7089520B358
:1002A00081E090E0062E02C0880F991F0A94E2F7C1
:1002B00030E08223932302C0959587956A95E2F7F3
:1002C0000895813049F0813028F0823039F0833050
:1002D00041F406C06ABB089567BB089564BB0895E6
:1002E00061BB0895813049F0813028F0823039F0C7
:1002F000833041F406C06BBB089568BB089565BBAD
:10030000089562BB0895813051F0813030F0823021
:1003100041F0833041F080E0089589B3089586B3B9
:10032000089583B3089580B30895089508950F93B1
:100330001F93182F81E060E041E00E94BC0081E043
:1003400061E040E00E94BC0080E0612F0E947201E9
:1003500081E062E041E00E94BC0000ED17E0C801CE
:100360000197F1F781E062E040E00E94BC00C80123
:100370000197F1F71F910F910895AF92BF92CF921D
:10038000DF92EF92FF920F931F93DF93CF93CDB73E
:10039000DEB769970FB6F894DEBF0FBECDBF7B0105
:1003A0008C0197FF11C010950095F094E094E11C2A
:1003B000F11C011D111D8DE20E9497015E01089440
:1003C000A11CB11C65011EC0611571058105910557
:1003D000A9F780E3F1CFC801B7012AE030E040E09F
:1003E00050E00E940404F60161936F01C801B70157
:1003F0002AE030E040E050E00E940404C901DA0144
:100400007C018D018C2D8A19E114F104010511057F
:1004100011F7F82EFA948F2D992787FD90958E016C
:100420000F5F1F4F080F191F08C0F8018081805D02
:100430000E949701FA9401501040F7FEF6CF69969A
:100440000FB6F894DEBF0FBECDBFCF91DF911F91E5
:100450000F91FF90EF90DF90CF90BF90AF900895F5
:100460000F931F93182F81E060E040E00E94BC00D2
:1004700081E061E040E00E94BC0080E0612F0E94CA
:10048000720181E062E041E00E94BC0000ED17E0F3
:10049000C8010197F1F781E062E040E00E94BC00F2
:1004A000C8010197F1F71F910F910895803419F455
:1004B000862F805402C0862F80580E9430020895F3
:1004C000EF92FF920F931F93CF93DF93EC0110E015
:1004D00000E088ECE82EF12C25C00E94970180ED09
:1004E00097E0F7013197F1F70197D9F70F30C9F489
:1004F00080917600882351F460E10E94560287E0E3
:100500000E94300280E4809376000AC0803449F46F
:1005100060E10E94560287E00E943002109276004D
:1005200011E00F5FFE01E00FF11D80818823A9F625
:1005300080917600882331F4112351F480E4809374
:10054000760006C0803421F4112311F41092760055
:1005500080E197E228EC30E0F9013197F1F701975B
:10056000D9F782E00E94300286E00E943002DF91DB
:10057000CF911F910F91FF90EF90089581E00E941D
:10058000300208950F931F9380E06FEF0E94610186
:1005900081E060E041E00E94490081E061E041E0EB
:1005A0000E94490081E062E041E00E94490084EF3E
:1005B00091E028EC30E0F9013197F1F70197D9F794
:1005C00088E30E94300200ED17E0C8010197F1F7BF
:1005D0008EE00E943002C8010197F1F781E00E948D
:1005E000300280E797E10197F1F786E00E94300240
:1005F000C8010197F1F71F910F9108956F927F92B3
:100600008F929F92BF92CF92DF92EF92FF920F93C1
:100610001F93DF93CF93CDB7DEB760970FB6F894F3
:10062000DEBF0FBECDBFDE011196E6E6F0E080E151
:1006300001900D928150E1F7CC24CA9400E010E0C3
:100640003E010894611C711C90E2892E9EE4992E53
:10065000B02E82E0602F40E00E94BC007301E00EEB
:10066000F11E84E0D82E82E06D2D0E942F01882398
:1006700011F4F701C08082E06D2D0E942F018823C4
:10068000D1F3C4010197F1F7D39484E090E0E80E30
:10069000F91E98E0D91639F782E06B2D41E00E94EF
:1006A000BC000F5F1F4F0430110591F68C2D609632
:1006B0000FB6F894DEBF0FBECDBFCF91DF911F9173
:1006C0000F91FF90EF90DF90CF90BF909F908F9011
:1006D0007F906F90089582E06FE00E94610182E058
:1006E0006FEF0E9472010895EF92FF920F931F9394
:1006F000DF93CF9300D000D0CDB7DEB700E07E010E
:100700000894E11CF11C0E94FE02182F8F3F11F18A
:10071000002311F40E94BE02F701E00FF11D1083C7
:100720000F5F1F3241F01A3231F01D3221F01B32BF
:1007300011F01D3321F4812F0E9497010BC0133259
:1007400019F40E94BE0242C0612F70E080E090E088
:100750000E94BD010430B9F61332C1F18A818B3297
:1007600051F08C3218F48A3249F50DC08D3239F0CF
:100770008F3221F513C06B812981620F09C0698115
:100780002B81621B05C06B812981629F602D112422
:10079000772767FD7095872F972F0DC06B81662394
:1007A00069F089810E94F803992787FD9095A92F08
:1007B000B92FBC01CD010E94BD0108C080E464E0F6
:1007C0000E94560280E690E00E9460020F900F9017
:1007D0000F900F90CF91DF911F910F91FF90EF90AD
:1007E00008950E946B030E94C2020E947403FDCF11
:1007F000991B79E004C0991F961708F0961B881F73
:100800007A95C9F78095089597FB092E05260ED095
:1008100057FD04D014D00AD0001C38F450954095F0
:10082000309521953F4F4F4F5F4F0895F6F79095C4
:100830008095709561957F4F8F4F9F4F0895A1E2EE
:100840001A2EAA1BBB1BFD010DC0AA1FBB1FEE1F4A
:10085000FF1FA217B307E407F50720F0A21BB30B95
:10086000E40BF50B661F771F881F991F1A9469F711
:1008700060957095809590959B01AC01BD01CF016D
:060880000895F894FFCF7B
:100886004572726F72000104072302050800030611
:06089600093D2B2D2A2F65
:00000001FF
